:0F08E000010BEA010ACB010801010900010C001C
:0E08F000AB078D08750A00C374FF9BF50B2241
:03000B0002088C5C
:10088C00C0E0C0D01509E509D394005006750C01E1
:0E089C00850809850A8C850B8AD0D0D0E03201
:1008C000758931850A8C850B8AD2A9D2AFD28C2248
:1008D000758931850A8C850B8AC2A9D2AFC28C2258
:030003000208FEF2
:0308FE00B2833290
:1008AA00E4F5A875882075893175A802F58CF58A52
:0608BA00D28CD28380FE07
:03000000020800F3
:0C080000787FE4F6D8FD75810C020847F3
:10080C000208AAE493A3F8E493A34003F68001F250
:10081C0008DFF48029E493A3F85407240CC8C333ED
:10082C00C4540F4420C8834004F456800146F6DFBC
:10083C00E4800B01020408102040809008E0E47E64
:10084C00019360BCA3FF543F30E509541FFEE493B1
:10085C00A360010ECF54C025E060A840B8E493A378
:10086C00FAE493A3F8E493A3C8C582C8CAC583CAA3
:10087C00F0A3C8C582C8CAC583CADFE9DEE780BE5B
:0108EF000008
:00000001FF
