:030000000209F101
:0C09F100787FE4F6D8FD75812E020A38EC
:050D4500E7E7E7E7E726
:100C4900C10841004000012CEA012BCB022200011E
:100C590002260000012D0001280002290000012EB2
:010C6900008A
:0A0D3B008FE7E5E630E1FBAFE722A9
:020CCA00AE0575
:100CCC00C2E9120D3BAD07AF06120D3BD2E9AF05E1
:010CDC0022F5
:0C0D2E00C2E9120D3BE4FF120D3BD2E9BC
:010D3A002296
:060BBE008B178A1889194B
:100BC400C2E9120D3BAE07E4FDEDC3951A5017E4DC
:100BD400FF120D3BAB17AA18A9198D82758300EF7C
:0A0BE4001209680D80E3D2E9AF06A4
:010BEE0022E4
:060B8C008B128A1389148C
:100B9200C2E9120D3BAE07E4FDEDC395155018AB4B
:100BA200120514E514AA137002051314F912094F61
:0B0BB200FF120D3B0D80E2D2E9AF0600
:010BBD002215
:100CEF00E4F520C208C2E87D0F7F20120CCAD2E8BB
:010CFF0022D2
:100B58008E088F09C2E87D0E7F20120CCA7BFF7AAF
:100B68000D79457515057F2A120B8C7B017A007962
:100B7800208509157FA0120B8CD2E8A204720550BB
:040B8800FA020CEF72
:03004B00020A7D29
:100A7D00C0E0C083C082C0D075D000C000C001C02E
:100A8D0002C003C005C006C0077F07120D2E8F20C0
:100A9D003006307B017A007900751A207F61120BC8
:100AAD00BEE4FD7FE2120CCAD2087F60120D2E90BB
:100ABD000040EFF0D39420400AE4F0FD7FE2120CE9
:100ACD00CAC208300407E4FD7FE1120CCA300507E5
:100ADD00E4FD7FE1120CCA7D707F27120CCAD0078E
:100AED00D006D005D003D002D001D000D0D0D08216
:050AFD00D083D0E032BF
:0608AA008B088A09890A8F
:1008B0007C07C2E8D2EAD2B9C2E8D2EAE5101460F5
:1008C0000F146014146016240370155304F980107B
:1008D0005304FB43040280085304FD8000430404D6
:1008E000E50F600E1460101470135304F7430420D6
:1008F000800B5304D780065304DF430408AB0BAAD4
:100900000CA90D7515057F30120B8CAB08AA09A92F
:100910000A7515057F2A120B8C7D017F22120CCAE5
:10092000E4FD7F21120CCAE4FD7F24120CCAAD0E37
:100930007F25120CCAAD047F26120CCA7D017F3CB4
:0F094000120CCA7D077F3D120CCAD2AF020CEF1A
:100CDD00AB05AA047C037DE812098AAD03AC0202C0
:020CED000C6B8E
:040C6B00AB05AA0427
:100C6F00EF7802C333CE33CED8F9FF7C007D031269
:090C7F00099CAD03AC02020CA2B9
:100CA2008C228D23C3E49FF525E49EF524F52BE5E4
:040CB20025F52C22D6
:100D0000758931852B8C852C8AD2A9D2AFD28C22C1
:0E0D2000758931852B8C852C8AD2A9D2AF2201
:030D4A00D28C2226
:100D1000758931852B8C852C8AC2A9D2AFC28C22D1
:100B02007593D77594F3750BFF750C0D750D4575BF
:100B12000E5C750F017510037BFF7A0D7945120883
:100B2200AA7D667CEA7F0A7E1A120CA2120D20D2DE
:100B3200857F647E00120CB6C2857F647E00120C33
:100B4200B6D2857F647E00120CB6C2857F647E00B9
:060B5200120CB6D2832252
:10080000900001E024BC604014606724FC60172461
:10081000F76043241160030208A9E4F526F527F5E3
:1008200029F52AC29222E4F526F527F529F52AD2E0
:100830008C9000207434F0A3746FF0A314F07F0345
:100840007E00120B58D29222C28CE4F529F52AF5CB
:1008500026F527C292229000207434F0A37452F03F
:10086000E529A3F0A3E52AF07F047E00120B58B21D
:1008700085229000207434F0752E01900040E0FF36
:10088000E52EC39F501E7400252EF582E43400F53A
:1008900083E0FE7420252EF582E43400F583EEF02B
:0A08A000052E80D77E00120B5822AF
:100BEF00120B02A29492933094097528018526293D
:100BFF0085272A3008EDC208E4F520900000E0FCBC
:100C0F00B4300512080080DBECB434D71208008032
:010C1F00D202
:03000B00020C20C4
:100C2000C0E0C0D00527E52770020526C39523E55F
:100C30002695224009752D01752600752700852B04
:090C40008C852C8AD0D0D0E03262
:0B0C88007FFA7E00120C937FFA7E00C2
:0F0C93000000000000EF1F70011E144E70F222CF
:100CB600AD07AC06120C88120C88ED1D70011C14D1
:040CC6004C70F1225B
:1009FD00020BEFE493A3F8E493A34003F68001F216
:100A0D0008DFF48029E493A3F85407240CC8C333FA
:100A1D00C4540F4420C8834004F456800146F6DFC9
:100A2D00E4800B0102040810204080900C49E47E04
:100A3D00019360BCA3FF543F30E509541FFEE493BE
:100A4D00A360010ECF54C025E060A840B8E493A385
:100A5D00FAE493A3F8E493A3C8C582C8CAC583CAB0
:100A6D00F0A3C8C582C8CAC583CADFE9DEE780BE68
:010C6A000089
:10094F00BB010689828A83E0225002E722BBFE02A6
:09095F00E32289828A83E49322D9
:10096800F8BB010DE58229F582E5833AF583E8F0C5
:10097800225006E92582C8F622BBFE05E92582C871
:02098800F22259
:10098A00EF8DF0A4A8F0CF8CF0A428CE8DF0A42E81
:02099A00FE223B
:10099C00BC000BBE0029EF8DF084FFADF022E4CC3F
:1009AC00F875F008EF2FFFEE33FEEC33FCEE9DEC08
:1009BC00984005FCEE9DFE0FD5F0E9E4CEFD22ED4E
:1009CC00F8F5F0EE8420D21CFEADF075F008EF2F98
:1009DC00FFED33FD4007985006D5F0F222C398FD89
:0509EC000FD5F0EA2226
:00000001FF
